:104233002041636365735363616E2076342E3520AA
:1042430000494E484142494C49544144412E2E2E87
:1042530020004552524F5220454E204C4F4F502E76
:104263002E2E005441524A45544120494E56414C4A
:10427300494441004E4F205245474953545241202F
:104283005041474F005441522E2053494E20464F30
:10429300524D41544F00444952494A4153452041EC
:1042A3002043414A412000466563686120486F729C
:1042B300613A20202020200049445F434C49454E69
:1042C30054453A00434F445F5041524B3A00434FE9
:1042D3004D5041524143494F4E3A20202020002067
:1042E3002020416464723A202020202020202000D6
:1042F3002053494E20524553505545535441202095
:104303000020504C414341204E4F20494755414CDA
:10431300200020454E5649414E444F204441544FBE
:0343230053200024
:103F6D005101114552524F523A20204C4F4F502083
:103F7D0031202000510047204655455241204445EF
:103F8D00204C494E454120005100C3204552524F0F
:103F9D0052204D4946415245202020005101B74540
:103FAD0052524F5220434F442E20504152512E0019
:103FBD00510011202053494E20494E475245534F31
:103FCD00202020005100B24E4F20524547495354F6
:103FDD005241205041474F0051005E4558434544E2
:103FED004520542E4752414349412000510199200B
:103FFD0041434345534F204E454741444F202000F8
:10400D0051002520202053494E2053414C49444115
:10401D00202020005100FE4552524F522047524160
:10402D00424143494F4E200051008041434552517A
:10403D005545534520412043414A410051006F539E
:10404D00455249453A2020202020202020202000C4
:10405D00510036434F4D504152414E444F20504C2C
:10406D00414341005100005441524A4554412056AC
:10407D00454E4349444120004100D4004100F431F4
:10408D004201FD00004201DD00004101DC00410163
:10409D002500410202004100D5004101E000410030
:1040AD00F7004101AC004101AB054100FA004201AE
:1040BD00FF0000C10FC102C101C123C115C116C14D
:1040CD0018C119C11AC11BC11EC122C124C125C1EC
:1040DD0008C111C121C184C106C105C112C10AC1E6
:1040ED009FC11CC10CC107C100C10BC109C18EC14B
:0340FD0020C110CF
:104A9300C2B6124AA6124AA6124AA6D2B6124AA60B
:034AA300024AA61E
:0844AC0074B69000D6F07F0108
:0544B400900261EFF031
:1044B900D2B6C226C2B5900263123ECB00000FA04D
:1044C90030B445202642900263E0FCA3E0FDA3E05E
:1044D900FEA3E0FFEF24FFFFEE34FFFEED34FFFD06
:1044E900EC34FFFC900263123EBF900263E0FCA330
:1044F900E0FDA3E0FEA3E0FFEC4D4E4F70C2D226D3
:10450900D2B6D2B4D2B580B8202629E4900262F09E
:10451900900261E0FFA3E0FEC39F501874D62EF508
:1045290082E43400F583E0F5A0124A93900262E038
:1045390004F080DCD2B6D2B520260C124A81124A88
:0945490081124A81124A81A22666
:014552002246
:10467D0090025FE02402F09000FBE024D0FF900256
:07468D005FE0FD3395E0FC46
:08469400900260ECF0A3EDF0D0
:10469C00E4A3F0A3F0FEFDFCEFC39464748094805B
:1046AC004007749C2FFF0E80EFEFC3940A74809424
:1046BC0080400774F62FFF0D80EFAC07ED4430FF00
:1046CC00900260E0FAA3E0FB2463F58274013AF5F2
:1046DC0083EFF0EC4430FF74642BF58274013AF5EF
:0346EC0083EFF069
:0146EF0022A8
:10496400301804D2808002C280301904D2818002BF
:10497400C281301A04D2828002C282301B03D283E5
:0449840022C28322A6
:10411900E4900263F0D2B5900124F030B403024276
:1041290030900262F0C2B5A3F0900263E0C3941E1E
:1041390074809480400302423090025E123ECB00AC
:1041490000003C30B64A20B447900262E0704190CA
:10415900025EE0FCA3E0FDA3E0FEA3E0FFEF24FF85
:10416900FFEE34FFFEED34FFFDEC34FFFC90025E00
:10417900123EBF90025EE0FCA3E0FDA3E0FEA3E0D7
:10418900FFEC4D4E4F70BCA304F0A3741FF080B335
:1041990030B60302421E900262E0707920B476A321
:1041A900E024D6F582E43400F583E5A0F0900124FB
:1041B900E004F090025E123ECB0000002320B655C9
:1041C900900262E0704FA3E024D6F582E43400F552
:1041D90083E5A0F090025EE0FCA3E0FDA3E0FEA36E
:1041E900E0FFEF24FFFFEE34FFFEED34FFFDEC347A
:1041F900FFFC90025E123EBF90025EE0FCA3E0FD70
:10420900A3E0FEA3E0FFEC4D4E4F70B1A304F0A371
:10421900741FF080A830B406900263741FF09002F6
:0942290063E004F0024132D2B559
:014232002269
:0548460090025EEFF09E
:10484B007E0054F0FFEEC4F854F0C868FEEFC45479
:10485B000F484430FF124A0D90025EE07E00540F69
:06486B004430FF024A0D7B
:104326009000D67402F0EF24FE600B04700E90002D
:10433600D77456F080069000D7744FF090026074E0
:1043460015F0900260E0D39425748094805021E0AB
:10435600FF2427F582E43401F583E0FE74C32FF5CC
:1043660082E43400F583EEF0900260E004F080D23F
:104376009000E87403F030B43D7F131244B49220E9
:10438600302072E4900260F0900260E0C3941374EF
:104396008094805054E0FF24D6F582E43400F583FF
:1043A600E0FE74E92FF582E43401F583EEF0900225
:1043B60060E004F080D2E4900260F0900260E0C316
:1043C6009413748094805021E0FF24D6F582E4345F
:1043D60000F583E0FE74E92FF582E43401F583EEFF
:1043E600F0900260E004F080D29001DC7413F0904B
:0543F60000FA741CF048
:0143FB00229F
:1048EE00900260EFF030B40BE01244AE9220302014
:1048FE001680009001DC7401F0900260E09001E9F6
:08490E00F09000FA742AF02277
:10221E00900125E024F97003022EC4240460030209
:10222E003595900202E0701B7F04124AB8E49001CB
:10223E0025F020B70302359A9000D674AAF07F01DC
:10224E000244B4900202E05401640160030228EBE0
:10225E00200C0302271190025FF0E0FF04F0EF3331
:10226E0095E0FE74632FF58274013EF5837402F0DF
:10227E0090025FE0FF04200D15F0EF3395E0FE7441
:10228E00632FF58274013EF5837461F08013F0EFD5
:10229E003395E0FE74632FF58274013EF58374432B
:1022AE00F0E490025EF09000F7E0FF90025EE0FD39
:1022BE00FB3395E0FAC3EB9F7480F86A985033EDC8
:1022CE00FF3395E0FE74C82FF58274013EF583E06E
:1022DE00FF90025FE0FE04F0EEFD3395E0FC7463C8
:1022EE002DF58274013CF583EFF090025EE004F070
:1022FE0080B490025FE0FF04F0EF3395E0FE74636C
:10230E002FF58274013EF583742CF0300720900077
:10231E0022E0FF90025FE0FE04F0EEFD3395E0FC5C
:10232E0074632DF58274013CF583EFF080199002F1
:10233E005FE0FF04F0EF3395E0FE74632FF58274D7
:10234E00013EF5837430F0200E0302242D9000FC24
:10235E00E0FFB4481890025FE0FE04F0EEFD339506
:10236E00E0FC74632DF58274013C02248BEFB454AF
:10237E001790025FE0FF04F0EF3395E0FE74632FD9
:10238E00F58274013E02248B9000FCE0FFB44D18E0
:10239E0090025FE0FE04F0EEFD3395E0FC74632DD9
:1023AE00F58274013C022470EFB4431790025FE093
:1023BE00FF04F0EF3395E0FE74632FF58274013E57
:1023CE0002248B30084320972A90025FE0FF0420FE
:1023DE00B711F0EF3395E0FE74632FF58274013E72
:1023EE0002248BF0EF3395E0FE74632FF5827401B7
:1023FE003E806F90025FE0FF04F0EF3395E0FE74D5
:10240E00632FF58274013E805990025FE0FF04F065
:10241E00EF3395E0FE74632FF58274013E805E30DB
:10242E00084720972990025FE0FF0420B710F0EFD5
:10243E003395E0FE74632FF58274013E803FF0EF1A
:10244E003395E0FE74632FF58274013E8014900282
:10245E005FE0FF04F0EF3395E0FE74632FF58274B6
:10246E00013EF5837431F0801990025FE0FF04F0B5
:10247E00EF3395E0FE74632FF58274013EF583749D
:10248E0030F090025FE0FF04F0EF3395E0FE7463EE
:10249E002FF58274013EF583742CF09001221246C2
:1024AE008712467D90025FE02402F090019512465D
:1024BE008790025FE02402F0900196124687900208
:1024CE005FE02402F090010F12468790025FE02435
:1024DE0002F0300D030226F1E0FF04F0EF3395E039
:1024EE00FE74632FF58274013EF583742CF0300771
:1024FE007390012312468790025FE02402F0900051
:10250E00FD12468790025FE02402F090019712467A
:10251E008790025FE02402F09001981246879002A5
:10252E005FE02402F090011012468790025FE024D3
:10253E0002F0E0FF04F0EF3395E0FE74632FF582B6
:10254E0074013EF583742CF090025FE0FF04F0EF0F
:10255E003395E0FE74632FF58274013EF58374208B
:10256E00F00226D690025FE0FF04F0EF3395E0FE16
:10257E0074632FF58274013EF5837430F090025F20
:10258E00E0FF04F0EF3395E0FE74632FF5827401E3
:10259E003EF5837430F090025FE0FF04F0EF339568
:1025AE00E0FE74632FF58274013EF5837430F09073
:1025BE00025FE0FF04F0EF3395E0FE74632FF582C7
:1025CE0074013EF5837430F090025FE0FF04F0EF8B
:1025DE003395E0FE74632FF58274013EF5837430FB
:1025EE00F090025FE0FF04F0EF3395E0FE74632F8E
:1025FE00F58274013EF5837430F090025FE0FF04C3
:10260E00F0EF3395E0FE74632FF58274013EF5838F
:10261E007430F090025FE0FF04F0EF3395E0FE744B
:10262E00632FF58274013EF5837430F090025FE003
:10263E00FF04F0EF3395E0FE74632FF58274013ED4
:10264E00F5837430F090025FE0FF04F0EF3395E015
:10265E00FE74632FF58274013EF5837430F09002A0
:10266E005FE0FF04F0EF3395E0FE74632FF58274A4
:10267E00013EF583742CF0E490025EF09001ACE024
:10268E00FF90025EE0FDFB3395E0FAC3EB9F748092
:10269E00F86A985033EDFF3395E0FE74AD2FF58256
:1026AE0074013EF583E0FF90025FE0FE04F0EEFD64
:1026BE003395E0FC74632DF58274013CF583EFF0E5
:1026CE0090025EE004F080B490025FE0FF04F0EF51
:1026DE003395E0FE74632FF58274013EF583742CFE
:1026EE00F0800090025FE0FF04F0EF3395E0FE749F
:1026FE00632FF58274013EF5837403F090025FE060
:10270E000228E49001637402F0900126E0FF70103D
:10271E00900164200D057441F0800A7443F0800529
:10272E00900164EFF0900091E090025FF0E490026F
:10273E005EF0900091E0FF90025EE0FD3395E0FCCC
:10274E00C3ED9F7480F86C985026E0FF3395E0FE41
:10275E0074C82FF58274013EF583E0FF74652DF584
:10276E008274013CF583EFF090025EE004F080C2CB
:10277E0090025FE0FF3395E0FE74652FF5827401E1
:10278E003EF583742CF0302413900022E0FD746625
:10279E002FF58274013EF583EDF0801690025FE016
:1027AE00FF3395E0FE74662FF58274013EF5837457
:1027BE0030F03004679000FCE0FFB448089000F859
:1027CE007404F08039EFB454089000F87403F0806C
:1027DE002DEFB442089000F87402F08021EFB44D52
:1027EE0002800EEFB44302801030080D2097028055
:1027FE00089000F87401F08005E49000F8F0900065
:10280E00F8E02430FF90025FE0FD3395E0FC746742
:10281E002DF58274013CF583EFF0803630081D9063
:10282E00025FE0FF3395E0FE74672F209702801859
:10283E00F58274013EF5837431F0801690025FE0EC
:10284E00FF3395E0FE74672FF58274013EF58374B5
:10285E0030F090025FE0FF300D673395E0FE746854
:10286E002FF58274013EF583742CF090025FE02404
:10287E0006F090012212468712467D90025FE024F8
:10288E0002F090019512468790025FE02402F090CC
:10289E00019612468790025FE02402F090010F121B
:1028AE00468790025FE02402F0E0FFFD3395E0FCE6
:1028BE0074632DF58274013CF5837403F0EF04808C
:1028CE0015FD3395E0FC74682DF58274013CF5839B
:1028DE007403F0EF2406FF1249A40235959002020C
:1028EE00E0540264026003022EAFD2119000F9741C
:1028FE001CF0E4F58CF58AC28D300503022B5D20A9
:10290E000B03022AE99001637402F0A37477F0902E
:10291E00029FE0FDC4540F2430900165F0ED540F7A
:10292E002430A3F09002A0E0FDC4540F2430900197
:10293E0067F0ED540F2430A3F09002A1E0FDC454D3
:10294E000F2430900169F0ED540F2430A3F0A374DE
:10295E002CF0A37430F03004559000FCE0FFB44826
:10296E00089000F87404F08039EFB454089000F821
:10297E007403F0802DEFB442089000F87402F080DA
:10298E0021EFB44D02800EEFB44302801030080DDB
:10299E0020970280089000F87401F08005E4900002
:1029AE00F8F09000F8E0243090016DF080163008B9
:1029BE000D90016D20970280087431F08006900111
:1029CE006D7430F090016E742CF0900122E024D0E2
:1029DE00FF7D0C7C001246949000FBE024D0FF7D1E
:1029EE000E7C00124694900195E024D0FF7D107C61
:1029FE0000124694900196E024D0FF7D127C0012C6
:102A0E00469490010FE024D0FF7D147C0012469472
:102A1E00900179742CF0900123E024D0FF7D177C77
:102A2E00001246949000FDE024D0FF7D197C001228
:102A3E004694900197E024D0FF7D1B7C00124694B3
:102A4E00900198E024D0FF7D1D7C001246949001E9
:102A5E0010E024D0FF7D1F7C001246949000F57488
:102A6E0021F0E0FF04F074632FF582E43401F58366
:102A7E00742CF0301C4EE490025EF09000D5E0FF16
:102A8E0090025EE0FDFB3395E0FAC3EB9F7480F895
:102A9E006A984003022D1FEDFF3395E0FE74AD2FB3
:102AAE00F58274013EF583E0FF9000F5E0FE04F040
:102ABE0074632EF582E43401F583EFF090025EE04C
:102ACE0004F080B79000F5E0FF04F074632FF582F8
:102ADE00E43401F5837420F0022D1F90016374021B
:102AEE00F0A37442F090029FE0FDC4540F24309086
:102AFE000165F0ED540F2430A3F09002A0E0FDC468
:102B0E00540F2430900167F0ED540F2430A3F09051
:102B1E0002A1E0FDC4540F2430900169F0ED540F72
:102B2E002430A3F0A3742CF0A37430F030080F20DF
:102B3E009704A3F0800E90016D7431F08006900121
:102B4E006D7430F090016E7403F07F0C022EA9901C
:102B5E0001637402F0A37477F090029FE0FDC454F9
:102B6E000F2430900165F0ED540F2430A3F0900245
:102B7E00A0E0FDC4540F2430900167F0ED540F24F3
:102B8E0030A3F09002A1E0FDC4540F2430900169EF
:102B9E00F0ED540F2430A3F0A3742CF0A37430F096
:102BAE003004559000FCE0FFB448089000F874041F
:102BBE00F08039EFB454089000F87403F0802DEFD4
:102BCE00B442089000F87402F08021EFB44D0280F8
:102BDE000EEFB44302801030080D2097028008904B
:102BEE0000F87401F08005E49000F8F09000F8E031
:102BFE00243090016DF0801630080D90016D2097F5
:102C0E000280087431F0800690016D7430F09001EE
:102C1E006E742CF0900122E024D0FF7D0C7C00120B
:102C2E0046949000FBE024D0FF7D0E7C001246946B
:102C3E00900195E024D0FF7D107C00124694900107
:102C4E0096E024D0FF7D127C0012469490010FE096
:102C5E0024D0FF7D147C00124694201203022D9383
:102C6E00900179742CF0900123E024D0FF7D177C25
:102C7E00001246949000FDE024D0FF7D197C0012D6
:102C8E004694900197E024D0FF7D1B7C0012469461
:102C9E00900198E024D0FF7D1D7C00124694900197
:102CAE0010E024D0FF7D1F7C001246949000F57436
:102CBE0021F0E0FF04F074632FF582E43401F58314
:102CCE00742CF0301C7BE490025EF09000D5E0FF97
:102CDE0090025EE0FDFB3395E0FAC3EB9F7480F843
:102CEE006A98502DEDFF3395E0FE74AD2FF582748A
:102CFE00013EF583E0FF9000F5E0FE04F074632ED4
:102D0E00F582E43401F583EFF090025EE004F0808A
:102D1E00BA9000F5E0FF04F074632FF582E43401FD
:102D2E00F583742CF09000F5E0FF04F074632FF53A
:102D3E0082E43401F5837403F09000F5E0FF022E77
:102D4E00A99000F5E0FF04F074632FF582E43401DE
:102D5E00F5837420F09000F5E0FF04F074632FF516
:102D6E0082E43401F583742CF09000F5E0FF04F05A
:102D7E0074632FF582E43401F5837403F09000F54B
:102D8E00E0FF022EA9900179742CF07D177C00E4EF
:102D9E00FF1246947D197C00E4FF1246947D1B7C45
:102DAE0000E4FF1246947D1D7C00E4FF1246947DE4
:102DBE001F7C00E4FF1246949000F57421F0E0FFB2
:102DCE0004F074632FF582E43401F583742CF02043
:102DDE001C03022E68C21CE490025EF09000D5E047
:102DEE0024FFFFE434FFFE90025EE0FDFB3395E02E
:102DFE00FAC3EB9FEE6480F8EA648098502DEDFFE5
:102E0E003395E0FE74AD2FF58274013EF583E0FF3D
:102E1E009000F5E0FE04F074632EF582E43401F5C3
:102E2E0083EFF090025EE004F080B19000F5E0FFD9
:102E3E0004F074632FF582E43401F583742CF09062
:102E4E0000F5E0FF04F074632FF582E43401F5839E
:102E5E007403F09000F5E0FF80419000F5E0FF0470
:102E6E00F074632FF582E43401F5837420F0900042
:102E7E00F5E0FF04F074632FF582E43401F58374FA
:102E8E002CF09000F5E0FF04F074632FF582E4342B
:102E9E0001F5837403F09000F5E0FF1249A40235AA
:102EAE0095900202E0FF54046404600302359AEF29
:102EBE0054FBF002359530064DC206E490025EF0EA
:102ECE009000D4E0FFFD90025EE0FEFB3395E0FA49
:102EDE00C3EB9D7480F86A985026EEFD3395E0FCA6
:102EEE0074922DF58274003CF583E0FE74D62DF5B8
:102EFE008274003CF583EEF090025EE004F080C038
:102F0E001244B4022F959000D4E064196003022F8E
:102F1E009F9000F4E0FF900093E06F7074A3E06464
:102F2E0048706E1246F0E490025EF09000D4E0FF1E
:102F3E00FD90025EE0FEFB3395E0FAC3EB9D7480DC
:102F4E00F86A985026EEFD3395E0FC74922DF582CA
:102F5E0074003CF583E0FE74D62DF58274003CF5CA
:102F6E0083EEF090025EE004F080C01244B47F80E5
:102F7E00124A537F53124A0D7F59124A0D7F4E1239
:102F8E004A0D7F43124A0DD216E4900125F0023508
:102F9E008D9000D4E0FF7E00C39406748094805020
:102FAE000302358DEF9407748094804011900128B0
:102FBE00E0B4630A1244B4D216E4900125F09001F5
:102FCE0029E0FF64446025EF6441702030031D301A
:102FDE002108301117200B148003200B0FD295906F
:102FEE0000F9742AF0E4F58CF58AC28D20150302DF
:102FFE00358DC215900097E064417031A3E06443B3
:10300E00702BA3E064457025A3E06452701FA3E00B
:10301E0064517019A3E0B45514A3E0B4450FA3E0B6
:10302E00B4530AA3E0B445057FA10234F190009792
:10303E00E064557045A3E0644E703FA3E0642070D9
:10304E0039A3E0644D70337F091248EE900202E01E
:10305E0054FEF054FDF0C21CC20CC207C20DE49027
:10306E000126F0900023F0A3F09001E1F0A3F0C24E
:10307E000B9000FC7420F00234F4900093E064583E
:10308E00703CA3E064417036A3E064587030A3E056
:10309E006458702AA3E064477024A3E06452701E43
:1030AE00A3E064417018A3E0B44313A3E0B4490E47
:1030BE00A3E0B44109A3E0B453047F01805490000F
:1030CE0093E064587052A3E06458704CA3E06458C7
:1030DE007046A3E064587040A3E06442703AA3E0E7
:1030EE0064497034A3E06445702EA3E0644E7028EA
:1030FE00A3E064567022A3E06445701CA3E0B44EB6
:10310E0017A3E0B44912A3E0B4440DA3E0B44F08F2
:10311E007F021243260234F4900093E06458706DDF
:10312E00A3E064587067A3E064587061A3E064582C
:10313E00705BA3E0644D7055A3E06445704FA3E04F
:10314E00644E7049A3E064537043A3E06455703D30
:10315E00A3E064417037A3E0644C7031A3E06420B7
:10316E00702BA3E0644E7025A3E0644F701FA3E0A4
:10317E0064207019A3E0B44514A3E0B4530FA3E088
:10318E00B4540AA3E0B441057FB20234F190009327
:10319E00E06458706DA3E064587067A3E0645870E3
:1031AE0061A3E06458705BA3E0644D7055A3E064C6
:1031BE0045704FA3E0644E7049A3E064537043A37F
:1031CE00E06455703DA3E064417037A3E0644C7039
:1031DE0031A3E06420702BA3E064597025A3E06452
:1031EE0041701FA3E064207019A3E0B44514A3E05E
:1031FE00B4530FA3E0B4540AA3E0B441057FB30265
:10320E0034F1900093E064587079A3E064587073C1
:10321E00A3E06458706DA3E064587067A3E0644D3A
:10322E007061A3E06445705BA3E0644E7055A3E04B
:10323E006453704FA3E064557049A3E0644170433A
:10324E00A3E0644C703DA3E064207037A3E06446B5
:10325E007031A3E06455702BA3E064457025A3E0A4
:10326E006452701FA3E064417019A3E0B42014A34C
:10327E00E0B4440FA3E0B4450AA3E0B452057FB412
:10328E000234F1900093E064587079A3E0645870B2
:10329E0073A3E06458706DA3E064587067A3E06494
:1032AE004D7061A3E06445705BA3E0644E7055A35E
:1032BE00E06453704FA3E064557049A3E06441701D
:1032CE0043A3E0644C703DA3E064207037A3E06438
:1032DE00467031A3E06455702BA3E064457025A3BE
:1032EE00E06452701FA3E064417019A3E0B420148F
:1032FE00A3E0B4440FA3E0B4450AA3E0B448057FAD
:10330E00B50234F1900093E06458704FA3E0645816
:10331E007049A3E064587043A3E06458703DA3E085
:10332E00644E7037A3E0644F7031A3E06420702BBD
:10333E00A3E064457025A3E06453701FA3E06420EE
:10334E007019A3E0B44D14A3E0B4450FA3E0B44E3E
:10335E000AA3E0B453057FB10234F1900093E06408
:10336E0058704FA3E064587049A3E064587043A3AB
:10337E00E06458703DA3E0644E7037A3E0644F7074
:10338E0031A3E06420702BA3E064527025A3E064A7
:10339E0045701FA3E064477019A3E0B44914A3E07D
:1033AE00B4530FA3E0B4540AA3E0B452057F040251
:1033BE0034F1900093E06458704FA3E06458704964
:1033CE00A3E064587043A3E06458703DA3E0644CDE
:1033DE007037A3E0644F7031A3E06454702BA3E008
:1033EE0064457025A3E06420701FA3E0644170194A
:1033FE00A3E0B45314A3E0B4490FA3E0B4470AA367
:10340E00E0B44E057F050234F1900093E0645870ED
:10341E0066A3E064587060A3E06458705AA3E06439
:10342E00587054A3E0644D704EA3E064457048A3F9
:10343E00E0644E7042A3E06453703CA3E0645570A8
:10344E0036A3E064417030A3E0644C702AA3E064BC
:10345E00207024A3E06445701EA3E064587018A386
:10346E00E0B44313A3E0B4450EA3E0B44409A3E0D3
:10347E00B445047F07806C900093E064587067A396
:10348E00E064587061A3E06458705BA3E064587008
:10349E0055A3E0644D704FA3E064457049A3E0640A
:1034AE004E7043A3E06453703DA3E064557037A3A0
:1034BE00E064417031A3E0644C702BA3E064207093
:1034CE0025A3E0644E701FA3E0644F7019A3E0B40F
:1034DE002014A3E0B4500FA3E0B4410AA3E0B44714
:1034EE00057F081248EE7F80124A5390025E7405E3
:1034FE00F090025EE0FFFD3395E0FCC3ED9415EC19
:10350E0064809480502BEF3395E0FE74922FF582F9
:10351E0074003EF583E06403601774922FF5827495
:10352E00003EF583E0FF124A0D90025EE004F0804B
:10353E00C07FC0124A5390025E7415F090025EE096
:10354E00FFFD3395E0FCD3ED9426EC64809480501F
:10355E002EEF3395E0FE74922FF58274003EF583C4
:10356E00E06403601A201E0F74922FF58274003EE1
:10357E00F583E0FF124A0D90025EE004F080BDE498
:0C358E00900125F0D21622E4900125F0F7
:01359A00220E
:1000260078037C027D017BFF7A4279D17E007F11C5
:10003600123E6C78147C027D017BFF7A4279E27E67
:10004600007F11123E6C78257C027D017BFF7A428F
:1000560079F37E007F11123E6C78367C027D017B3F
:10006600FF7A4379047E007F11123E6C78477C024A
:100076007D017BFF7A4379157E007F11123E6C125B
:1000860049F41200061246F0E58954F04401F58958
:10009600C28DE4F58CF58AD28CC296C295C294D2F2
:1000A600B6D201900023F0A3F09001E1F0A3F09006
:1000B60000F6741EF09000F9741CF0C213C280C2E0
:1000C60018C281C219C282C21AC283C21BC20DE4FF
:1000D600900126F0C205C20CC2079000FAF090010A
:1000E600DDF0A3F0C2009001FDF0A3F0C210C21D26
:1000F600D203D208D20ED221D204A3F0A3F0C209B1
:100106007BFF7A427933FDFF1200167FC0124A53F5
:100116007B017A02791412487112489BD2B5D2B685
:1001260075A0FF90025DE5A0F09002C8E064016052
:100136000302041930B703020419201F030201FE4B
:100146009000F6741EF01249881247E5301D5D9046
:1001560001FDE07002A3E070519000D67402F0A396
:100166007457F090029FE0FF9000D8F09002A0E054
:10017600FE9000D9F09002A1E0FD9000DAF0A374A1
:1001860003F090005AEFF0A3EEF0A3EDF09000D448
:100196007406F0FF1244B4900202E054FDF09001A0
:1001A600FD7402F0A37430F0806280599000D6741A
:1001B60002F0A37457F090029FE09000D8F09002EE
:1001C600A0E09000D9F09002A1E09000DAF0A374CC
:1001D60003F09000D47406F0FF1244B49002027447
:1001E60002F0C20B9001E1E4F0A37405F090012542
:1001F6007403F012221E80147BFF7A427944E4FDD8
:100206007F01120016900202E054FDF0200903025D
:10021600044090029FE0FF7E006476700CA3E064C9
:10022600D67006A3E0640B603DEF64244E700E901A
:1002360002A0E064547006A3E064E4607B90029F31
:10024600E06495700AA3E07006A3E064D560699047
:10025600029FE0FF7E00645F700FA3E064D7700921
:10026600A3E064847003020406EF64954E700C905C
:1002760002A0E07006A3E064F2603D90029FE06495
:1002860060700CA3E064407006A3E064946029905B
:10029600029FE0FF7E006495700AA3E07006A3E06B
:1002A60064F36014EF64374E70119002A0E0643678
:1002B6007009A3E06424700302040690029FE064C0
:1002C60095700CA3E064017006A3E06410603F9093
:1002D600029FE0FF7E00647F700CA3E064757006E9
:1002E600A3E064446028EF64954E700E9002A0E08F
:1002F60064017006A3E06411601490029FE0641725
:10030600700FA3E064EE7009A3E064247003020496
:100316000690029FE0FF7E006495700CA3E0644F98
:100326007006A3E064D7603FEF64674E700E9002DC
:10033600A0E064177006A3E064B4602B90029FE00F
:100346006494700CA3E064EA7006A3E06475601719
:1003560090029FE0FF7E00647C700FA3E064DE7075
:1003660009A3E064347003020406EF64944E700E31
:100376009002A0E064EB7006A3E06458602B900244
:100386009FE06417700CA3E064167006A3E064D4C3
:10039600601790029FE0FF7E00648F700EA3E064FA
:1003A600427008A3E064D670028055EF64954E70E3
:1003B6000E9002A0E0641D7006A3E064BC60149079
:1003C600029FE06426700EA3E064127008A3E06446
:1003D600847002802B90029FE0FF7E006482700C86
:1003E600A3E064887006A3E064146014EF64514EC1
:1003F60070489002A0E064C17040A3E06414703AB3
:10040600D296D2959000F9742AF0E4F58CF58AC25A
:100416008D80279002C8E06401701F124988124738
:10042600E57F061248EE7BFF7A427955E4FD7F01AF
:10043600120016900202E054FDF030B403021FD100
:100446009000D674FFF0A3F0124119900124E070D9
:1004560003021FD16401700A9000D6E064067002A0
:10046600D21F900124E0640160030207969000D633
:10047600E0FF7E00C394DF748094805003020796E9
:10048600D3EF94EF7480948040030207961246F0EF
:100496009000D6E0FF64E2600AEF64E36005EF6473
:1004A600E4703A7FC0124A53E4900258F090025822
:1004B600E024C3F582E43400F583E0FF600B124AC2
:1004C6000D900258E004F080E47FCE124A5390006B
:1004D600D6E0540F2430FF124A0D0207849000D64E
:1004E600E064E070297FC0124A53E4900258F0900D
:1004F6000258E02411F582E43401F583E0FF70032D
:10050600020784124A0D900258E004F080E1900040
:10051600D6E064E1700F7BFF7A427966FD7F0112B7
:1005260000160207849000D6E064E570297FC012A9
:100536004A53E4900258F0900258E024B7F582E45A
:100546003401F583E0FF7003020784124A0D90021E
:1005560058E004F080E19000D6E064E670297FC0A0
:10056600124A53E4900258F0900258E02411F582A2
:10057600E43400F583E0FF7003020784124A0D900D
:100586000258E004F080E19000D6E064E770187F3E
:10059600C0124A537BFF7A4279771248717F107EE8
:1005A60027124A690207849000D6E064E870297F22
:1005B600C0124A53E4900258F0900258E0245EF5C7
:1005C60082E43400F583E0FF7003020784124A0DCB
:1005D600900258E004F080E19000D6E064E97029CA
:1005E6007FC0124A53E4900258F0900258E0242546
:1005F600F582E43400F583E0FF7003020784124AB3
:100606000D900258E004F080E19000D6E064EA70B4
:10061600297FC0124A53E4900258F0900258E02411
:10062600FEF582E43400F583E0FF700302078412CE
:100636004A0D900258E004F080E19000D6E064EBA9
:1006460070297FC0124A53E4900258F0900258E095
:100656002480F582E43400F583E0FF70030207840A
:10066600124A0D900258E004F080E19000D6E06452
:10067600EC70297FC0124A53E4900258F090025859
:10068600E02400F582E43400F583E0FF70030207FE
:1006960084124A0D900258E004F080E19000D6E002
:1006A60064ED70297FC0124A53E4900258F090021C
:1006B60058E02425F582E43402F583E0FF70030256
:1006C6000784124A0D900258E004F080E19000D6AB
:1006D600E064EE70297FC0124A53E4900258F0900D
:1006E6000258E02436F582E43402F583E0FF700315
:1006F600020784124A0D900258E004F080E190004F
:10070600D6E064EF705F7FC0124A537F54124A0DE1
:100716007F41124A0D7F52124A0D7F4A124A0D7FBF
:1007260045124A0D7F54124A0D7F41124A0D7F2011
:10073600124A0D7F41124A0D7F54124A0D7F411213
:100746004A0D7F53124A0D7F43124A0D7F41124ACA
:100756000D7F44124A0D7F41124A0DD20A9000F9CC
:10076600741CF080199000D6E064DF70111246F018
:100776007FC0124A537BFF7A427988124871D21E93
:100786009000F9741CF0E4F58CF58AC28D021FD135
:10079600900124E0FF7E006401700E9000D6E064B4
:1007A600A07006D218D280803BEF64014E70219073
:1007B60000D6E064A17019D219D2819000F9741C98
:1007C600F07BFF7A427999E4FDFF120016021FD1F1
:1007D600900124E0640170159000D6E064A2700DCB
:1007E600D21AD2829000F9741CF0021FD190012413
:1007F600E0FF7E00640170159000D6E064A3700DE2
:10080600D21BD2839000F9742AF0021FD1EF640143
:100816004E70589000D6E064AF70507FC0124A53B5
:100826007F43124A0D7F4F124A0D7F4E124A0D7FAB
:1008360054124A0D7F2E124A0D7F20124A0D7F4513
:10084600124A0D7F56124A0D7F4E124A0D7F201214
:100856004A0D7F49124A0D7F4E124A0D7F49124AB0
:100866000D7F43124A0D7F49020AAB900124E064D2
:100876000170429000D6E0644E703AD2037F801237
:100886004A53E4900258F0900258E02403F582E4BB
:100896003402F583E0FF600B124A0D900258E00423
:1008A600F080E47F8D124A537F4E124A0D201D03BD
:1008B600021FD18048900124E06401704A9000D65E
:1008C600E064537042C2037F80124A53E490025898
:1008D600F0900258E02403F582E43402F583E0FF49
:1008E600600B124A0D900258E004F080E47F8D12EE
:1008F6004A537F53124A0D201D03021FD17F201237
:100906004A0D7F4D021067900124E0640170329019
:1009160000D6E0B4502BC2037FC0124A53E49002C3
:1009260058F0900258E02436F582E43400F583E06E
:10093600FF7003021FD1124A0D900258E004F080A6
:10094600E1900124E0640170309000D6E0B44429BF
:100956007FC0124A53E4900258F0900258E02447B0
:10096600F582E43402F583E0FF7003021FD1124AD8
:100976000D900258E004F080E1900124E0640170DB
:100986005D9000D6E064F170557FC0124A537F55E2
:10099600124A0D7F4E124A0D7F20124A0D7F4D12CC
:1009A6004A0D7F4F124A0D7F4D124A0D7F45124A5E
:1009B6000D7F4E124A0D7F54124A0D7F4F124A0D7B
:1009C6007F2E124A0D7F2E124A0D7F2E124A0D7F60
:1009D60020124A0D7F20124A0D7F200210679001D7
:1009E60024E06401705D9000D6E064F370557FC02A
:1009F600124A537F50124A0D7F49124A0D7F431205
:100A06004A0D7F4F124A0D7F20124A0D7F59124A16
:100A16000D7F20124A0D7F50124A0D7F4C124A0D4F
:100A26007F41124A0D7F43124A0D7F41124A0D7FC4
:100A36002E124A0D7F2E124A0D7F2E124A0D7F204E
:100A4600021067900124E0640170629000D6E064B1
:100A5600F8705A7FC0124A537F56124A0D7F4512CC
:100A66004A0D7F48124A0D7F49124A0D7F2E124ABF
:100A76000D7F20124A0D7F49124A0D7F4E124A0DF4
:100A86007F56124A0D7F41124A0D7F4C124A0D7F46
:100A960049124A0D7F44124A0D7F4F124A0D7F2E8E
:100AA600124A0D7F2E124A0D7F2E021067900124E6
:100AB600E06401705D9000D6E064F970557FC01265
:100AC6004A537F53124A0D7F41124A0D7F4C124AF8
:100AD6000D7F49124A0D7F44124A0D7F41124A0D7D
:100AE6007F20124A0D7F52124A0D7F45124A0D7F12
:100AF60043124A0D7F48124A0D7F41124A0D7F5A12
:100B0600124A0D7F41124A0D7F44124A0D7F41025F
:100B16001067900124E06401705D9000D6E064FAED
:100B260070557FC0124A537F53124A0D7F49124AAD
:100B36000D7F4E124A0D7F20124A0D7F54124A0D28
:100B46007F41124A0D7F52124A0D7F4A124A0D7F8B
:100B560045124A0D7F54124A0D7F41124A0D7F53AA
:100B6600124A0D7F20124A0D7F20124A0D7F201255
:100B76004A0D7F20021067900124E06401705D90A9
:100B860000D6E064B570557FC0124A537F46124ABC
:100B96000D7F55124A0D7F45124A0D7F52124A0D9E
:100BA6007F41124A0D7F20124A0D7F44124A0D7F63
:100BB60045124A0D7F20124A0D7F48124A0D7F4F7B
:100BC600124A0D7F52124A0D7F41124A0D7F521270
:100BD6004A0D7F49124A0D7F4F021067900124E0AB
:100BE60064016003020CA29000D6E064B8600302C0
:100BF6000CA27F80124A537F20124A0D7F45124A6B
:100C06000D7F4E124A0D7F54124A0D7F52124A0D25
:100C16007F41124A0D7F44124A0D7F41124A0D7FD1
:100C260020124A0D7F46124A0D7F55124A0D7F4506
:100C3600124A0D7F52124A0D7F41124A0D7F201231
:100C46004A0D7F20124A0D7FC0124A537F44124A32
:100C56000D7F45124A0D7F20124A0D7F48124A0D1C
:100C66007F4F124A0D7F52124A0D7F41124A0D7F65
:100C760052124A0D7F49124A0D7F4F124A0D7F20AC
:100C8600124A0D7F2D124A0D7F43124A0D7F4112E3
:100C96004A0D7F4A124A0D7F41021067900124E0F7
:100CA60064016003020D629000D6E064B96003023D
:100CB6000D627F80124A537F44124A0D7F49124AC1
:100CC6000D7F41124A0D7F20124A0D7F44124A0DB4
:100CD6007F45124A0D7F20124A0D7F41124A0D7F31
:100CE60043124A0D7F43124A0D7F45124A0D7F5328
:100CF600124A0D7F4F124A0D7F20124A0D7F201295
:100D06004A0D7F20124A0D7FC0124A537F49124A6C
:100D16000D7F4E124A0D7F56124A0D7F41124A0D23
:100D26007F4C124A0D7F49124A0D7F44124A0D7FAD
:100D36004F124A0D7F20124A0D7F20124A0D7F2046
:100D4600124A0D7F20124A0D7F20124A0D7F201273
:100D56004A0D7F20124A0D7F20021067900124E081
:100D66006401705D9000D6E064FB70557FC0124A46
:100D7600537F45124A0D7F52124A0D7F52124A0D79
:100D86007F4F124A0D7F52124A0D7F20124A0D7F65
:100D960054124A0D7F52124A0D7F41124A0D7F4E60
:100DA600124A0D7F53124A0D7F50124A0D7F4F1281
:100DB6004A0D7F52124A0D7F54124A0D7F4502108A
:100DC60067900124E06401705D9000D6E064FC70D9
:100DD600557FC0124A537F4E124A0D7F4F124A0D5D
:100DE6007F20124A0D7F45124A0D7F53124A0D7F0E
:100DF60020124A0D7F4D124A0D7F45124A0D7F4E35
:100E0600124A0D7F53124A0D7F55124A0D7F411229
:100E16004A0D7F4C124A0D7F2E124A0D7F2E124A22
:100E26000D7F2E021067900124E06401705D900032
:100E3600D6E064FD70557FC0124A537F4E124A0DAC
:100E46007F4F124A0D7F20124A0D7F45124A0D7FB1
:100E560053124A0D7F20124A0D7F44124A0D7F45D8
:100E6600124A0D7F20124A0D7F52124A0D7F4F12F1
:100E76004A0D7F54124A0D7F41124A0D7F43124A92
:100E86000D7F49124A0D7F4F021067900124E064DE
:100E960001705D9000D6E064FE70557FC0124A5323
:100EA6007F42124A0D7F49124A0D7F45124A0D7F35
:100EB6004E124A0D7F56124A0D7F45124A0D7F4E3D
:100EC600124A0D7F49124A0D7F44124A0D7F4F1276
:100ED6004A0D7F20124A0D7F20124A0D7F20124AAA
:100EE6000D7F20124A0D7F20124A0D7F20021067C7
:100EF600900124E06401705C9000D6E0F470557FA8
:100F060080124A537F47124A0D7F52124A0D7F4183
:100F1600124A0D7F43124A0D7F49124A0D7F411234
:100F26004A0D7F53124A0D7F2E124A0D7F2E124A0A
:100F36000D7F2E124A0D7F20124A0D7F20124A0D78
:100F46007F20124A0D7F20124A0D7F20124A0D7F04
:100F5600200210679000D6E06402600302106DA3C1
:100F6600E06469600302106D1246F07BFF7A4279F5
:100F7600AAE4FDFF1200167FC0124A539000D8E083
:100F8600FF1248467F2F124A0D9000D9E0FF124803
:100F9600467F2F124A0D9000DAE0FF1248467F2066
:100FA600124A0D9000DBE0FF1248467F3A124A0DC6
:100FB6009000DCE0FF1248469000DDE0FF12484654
:100FC6007F8C124A539000DEE06401700F7F44125A
:100FD6004A0D7F6F124A0D7F6D0210679000DEE0AA
:100FE6006402700E7F4C124A0D7F75124A0D7F6E99
:100FF600806F9000DEE06403700E7F4D124A0D7F15
:1010060061124A0D7F7280599000DEE06404700E12
:101016007F4D124A0D7F69124A0D7F65804390000D
:10102600DEE06405700E7F4A124A0D7F75124A0D86
:101036007F65802D9000DEE06406700E7F56124AB2
:101046000D7F69124A0D7F6580179000DEE0640708
:101056006003021FD17F53124A0D7F61124A0D7F32
:1010660062124A0D021FD19000D6E06402600302AC
:10107600112BA3E06449600302112B7F80124A53AF
:10108600E4900258F0900258E0246FF582E43400B0
:10109600F583E0FF600B124A0D900258E004F080E1
:1010A600E4900124E024FE90025DF07FC0124A53D2
:1010B600E49001E3F0900258F090025DE0FF9002A8
:1010C60058E0FEC39F503774D82EF582E43400F5FD
:1010D60083E064037008EF04900258F080189002D1
:1010E60058E024D8F582E43400F583E0FF124A0D77
:1010F6009001E3E004F0900258E004F080BBE49035
:101106000258F09001E3E0FFC374109FFF9002586D
:10111600E0C39F4003021FD17F20124A0D90025860
:10112600E004F080DE9000D6E0640260030211C79E
:10113600A3E0644460030211C71246F07F80124A9E
:10114600537BFF7A4279BB1248719002587402F0C1
:10115600900258E0FF24D6F582E43400F583E0647B
:101166003B601774D62FF582E43400F583E0FF1256
:101176004A0D900258E004F080D67FC0124A539080
:101186000258E004F07BFF7A4279C7124871900258
:10119600597402F0900258E0FF24D6F582E4340038
:1011A600F583E0643B7003021FD174D62FF582E409
:1011B6003400F583E0FF124A0D900258E004F080F7
:1011C600D39000D6E064026003021271A3E0645774
:1011D6006003021271900124E0FF24D5F582E43405
:1011E60000F583E064036003021271EF6412707B02
:1011F6009001FDF0A3F0C205D20B9000DAE0900258
:101206009FF09000D9E09002A0F09000D8E0900204
:10121600A1F09000DCE0900122F09000DDE090006B
:10122600FBF09000DEE0900195F09000DFE0900189
:1012360096F09000E0E090010FF09000E1E0900160
:1012460023F09000E2E09000FDF09000E3E09001D2
:1012560097F09000E4E0900198F09000E5E09001AE
:1012660010F09000E6E09000FC80329000D6E0FDA1
:101276007C006402703BA3E0645770359001FDF07A
:10128600A3F0C205C20B9000DAE090029FF0900036
:10129600D9E09002A0F09000D8E09002A1F0900270
:1012A60002E04402F09001E1E4F0A37405F0021FAD
:1012B600D1ED64024C70479000D7E0644D703F90CA
:1012C60001FDF0A3F0124553C2059000DAE090024A
:1012D6009FF09000D9E09002A0F09000D8E0900234
:1012E600A1F0900202E04402F09001E1E4F0A37460
:1012F60005F09001DDE4F0A3748CF0021FD190009C
:10130600D6E064026003021480A3E06477600302FF
:101316001480900124E0FF24D5F582E43400F5839F
:10132600E0640360030214809001FDF0A3F0D2058F
:10133600C212C21C9000DAE090029FF09000D9E041
:101346009002A0F09000D8E09002A1F09000DCE0BE
:10135600900122F09000DDE09000FBF09000DEE0CE
:10136600900195F09000DFE0900196F09000E0E0AB
:1013760090010FF07E00EF641270379000E1E0906C
:101386000123F09000E2E09000FDF09000E3E09091
:101396000197F09000E4E0900198F09000E5E0906D
:1013A6000110F09000E6E09000FCF0D212C21C02A0
:1013B600146DD3EF9412EE6480948050030214638C
:1013C6009000E1E0900123F09000E2E09000FDF053
:1013D6009000E3E0900197F09000E4E0900198F02F
:1013E6009000E5E0900110F0900124E024D4F5820D
:1013F600E43400F583E09000FCF0D212D21CE490B5
:1014060000D5F09001E0740AF09002587410F09044
:101416000124E0FF24FEFE900258E0FDC39E5047E3
:1014260074D62DF582E43400F583E0640390025807
:101436006021E0FE24D6F582E43400F583E0FD74F5
:101446009D2EF582E43401F583EDF09000D5E0049D
:10145600F08002EFF0900258E004F080B29000E1D4
:10146600E09000FCF0C212900202E04402F090010B
:10147600E1E4F0A3740AF0021FD19000D6E0640202
:1014860060030215F9A3E0FF64506017EF6454602F
:1014960012EF6456600DEF64456008EF6447600321
:1014A6000215F9E49001FDF0A3F0900126EFF0900B
:1014B6000124E0900091F01249C0C20DC2247F8041
:1014C600124A539002587403F0900091E0FF900284
:1014D60058E0FEC39F400302156474D62EF582E4DD
:1014E6003400F583E0C39430401074D62EF582E4C0
:1014F6003400F583E0D39439403D74D62EF582E46A
:101506003400F583E0C39441401074D62EF582E48E
:101516003400F583E0D3945A401D74D62EF582E448
:101526003400F583E0642D600E74D62EF582E43423
:1015360000F583E0B42E04D2258008C225EF04907E
:101546000258F0900258E024D6F582E43400F58380
:10155600E0FF124A0D900258E004F00214CF202555
:1015660003021FC2E4900259F09000FCF09002586A
:10157600F0900091E0FF900258E0FEC39F502A745D
:10158600D62EF582E43400F583E0B42E1474D72EFB
:10159600F582E43400F583E09000FCF0900258EF09
:1015A600F0900258E004F080C89000FCE0600790DC
:1015B6000091E024FBF0900202E04401F0E4900286
:1015C60058F0900091E0FF900258E0FEC39F400360
:1015D600021FC274D92EF582E43400F583E0FF744D
:1015E600C82EF582E43401F583EFF0900258E0044A
:1015F600F080CF9000D6E064026003021755A3E0A6
:1016060064616003021755900124E024D5F582E455
:101616003400F583E0640360030217559001FDF082
:10162600A3F0D20CC2079000F7F09002587402F0B3
:10163600900124E0FC900258E0FEC39C502174D631
:101646002EF582E43400F583E0B42D0BEE04900110
:10165600AAF0900258ECF0900258E004F080D19085
:1016660002587402F09001AAE014FF900258E0FEBE
:10167600C39F502674D62EF582E43400F583E0FF2E
:1016860074C62EF582E43401F583EFF09000F7E09E
:1016960004F0900258E004F080CB9001AAE0FF0429
:1016A600F074D62FF582E43400F583E0900122F041
:1016B6009001AAE0FF04F074D62FF582E43400F519
:1016C60083E09000FBF09001AAE0FF04F074D62FAF
:1016D600F582E43400F583E0900195F09001AAE0EC
:1016E600FF04F074D62FF582E43400F583E0900110
:1016F60096F09001AAE0FF04F074D62FF582E43448
:1017060000F583E090010FF0E49001ACF09001AA9F
:10171600E004900258F0900124E014FF900258E093
:10172600FEC39F4003021B2574D62EF582E43400C7
:10173600F583E0FF9001ACE0FE04F074AD2EF58277
:10174600E43401F583EFF0900258E004F080C7908E
:1017560000D6E064026003021957900124E024D504
:10176600F582E43400F583E06403600302195790C0
:1017760000D7E0FF646D6017EF646E6012EF646F70
:10178600600DEF64416008EF64526003021957EF81
:10179600646E70499001FDF0A3F0C21D7F80124A6D
:1017A60053E4900258F0900258E02403F582E434A2
:1017B60002F583E0FF600B124A0D900258E004F038
:1017C60080E47F8D124A533003047F4E80027F539C
:1017D600124A0D7F20124A0D7F4E0218D29000D772
:1017E600E0646D7043D21D7F80124A53E490025824
:1017F600F0900258E02403F582E43402F583E0FF1A
:10180600600B124A0D900258E004F080E47F8D12BE
:101816004A533003047F4E80027F53124A0D7F20C5
:10182600124A0D7F4D0218D29000D7E0646F600314
:101836000218D7A3E064307048C21D9001FDF0A3E2
:10184600F07F80124A53E4900258F0900258E02448
:1018560003F582E43402F583E0FF600B124A0D9033
:101866000258E004F080E47F8D124A533003047F6F
:101876004E80027F53124A0D7F20124A0D7F6F80E1
:101886004B9000D8E06431600302194ED21D7F8070
:10189600124A53E4900258F0900258E02403F5826D
:1018A600E43402F583E0FF600B124A0D900258E023
:1018B60004F080E47F8D124A533003047F4E800289
:1018C6007F53124A0D7F20124A0D7F4D124A0D801A
:1018D600779000D7E0FD6441703D9001FDE0700215
:1018E600A3E06064E49001FDF0A3F090005AE0905C
:1018F600029FF090005BE09002A0F090005CE09008
:1019060002A1F0900202E04402F09001E1E4F0A3AB
:101916007405F0C20B8031EDB4522DE49001FDF058
:10192600A3F07F80124A53E4900258F0900258E0E8
:101936002499F582E43401F583E0FF600B124A0D29
:10194600900258E004F080E49000D774FFF0021F84
:10195600D19000D6E064026003021B2FA3E0FF646F
:10196600736008EF64436003021B2F900124E02498
:10197600D5F582E43400F583E064036003021B2F8F
:101986009001FDF0A3F0D20CD2079000F7F0900082
:10199600D7E0B44304D20D8002C20D9002587402FF
:1019A600F0900124E0FC900258E0FEC39C502174A4
:1019B600D62EF582E43400F583E0B42D0BEE0490C8
:1019C6000058F0900258ECF0900258E004F080D1F4
:1019D600900058E024D6F582E43400F583E09000C8
:1019E60022F09002587402F0900058E0FF14FE9026
:1019F6000258E0FDC39E502674D62DF582E43400CD
:101A0600F583E0FE74C62DF582E43401F583EEF02D
:101A16009000F7E004F0900258E004F080CAEF244A
:101A2600029001AAF0E0FF04F074D62FF582E434A8
:101A360000F583E0900122F09001AAE0FF04F07423
:101A4600D62FF582E43400F583E09000FBF0900198
:101A5600AAE0FF04F074D62FF582E43400F583E0A3
:101A6600900195F09001AAE0FF04F074D62FF5825C
:101A7600E43400F583E0900196F09001AAE0FF04BB
:101A8600F074D62FF582E43400F583E090010FF070
:101A96009001AAE004F0E0FF04F074D62FF582E48A
:101AA6003400F583E0900123F09001AAE0FF04F0F2
:101AB60074D62FF582E43400F583E09000FDF090B3
:101AC60001AAE0FF04F074D62FF582E43400F58312
:101AD600E0900197F09001AAE0FF04F074D62FF58C
:101AE60082E43400F583E0900198F09001AAE0FFCB
:101AF60004F074D62FF582E43400F583E0900110EB
:101B0600F09001AAE004F0E0FF04F074D62FF5820D
:101B1600E43400F583E09000FCF0E49001ACF09032
:101B26000202E04401F0021FC29000D6E0640260A7
:101B360003021BEFA3E064646003021BEF90012421
:101B4600E0FF24D5F582E43400F583E06403600306
:101B5600021BEFEF64096003021BEF1249C07F808E
:101B6600124A537F53124A0D7F61124A0D7F6C123F
:101B76004A0D7F64124A0D7F6F124A0D7F20124A6A
:101B86000D7F44124A0D7F69124A0D7F73124A0D6A
:101B96007F70124A0D7F6F124A0D7F6E124A0D7FBB
:101BA60069124A0D7F62124A0D7F6C124A0D7F65DB
:101BB600124A0D1249DA7FC0124A53900258740233
:101BC600F0900258E0FFC3940874809480400302AA
:101BD6001FD174D62FF582E43400F583E0FF124A54
:101BE6000D900258E004F080D8900124E090009116
:101BF600F01249C0E49000FCF0900258F090009179
:101C0600E0FF900258E0FEC39F502A74D62EF5825C
:101C1600E43400F583E0B42E1474D72EF582E43450
:101C260000F583E09000FCF0900258EFF090025827
:101C3600E004F080C89000FCE06007900091E0248A
:101C4600FEF0C20DC224E4900259F0900258F090C2
:101C56000091E0FB900258E0FEC39B502A74D62EFA
:101C6600F582E43400F583E0B42D14900258A3E025
:101C7600FD04F0745B2DF582E43402F583EEF090FA
:101C86000258E004F080C8900259E0600B90025BB5
:101C9600E00490025AF0800590025AEBF07F801221
:101CA6004A53E4900258F090025AE0FF900258E03E
:101CB600FEC39F4003021D4274D62EF582E4340013
:101CC600F583E0C39430401074D62EF582E43400D8
:101CD600F583E0D39439403D74D62EF582E4340082
:101CE600F583E0C39441401074D62EF582E43400A7
:101CF600F583E0D3945A401D74D62EF582E4340061
:101D0600F583E0642D600E74D62EF582E43400F57A
:101D160083E0B42E04D2258008C225EF0490025831
:101D2600F0900258E024D6F582E43400F583E0FF13
:101D3600124A0D900258E004F0021CAD2025030261
:101D46001FD1E49001FDF0A3F0900202E04401F0FF
:101D5600900259E07003021F8B64016003021ECAE1
:101D6600900091E024FFFFE434FFFE90025BE0FD6B
:101D7600C3EF9DFFEE9400FEEF64014E705A900291
:101D860058F0900091E0FF900258E0FEC39F50206B
:101D960074D62EF582E43400F583E0FD74C82EF582
:101DA60082E43401F583EDF0900258E004F080D22D
:101DB600D22474C72FF582E43401F583E090002223
:101DC600F07F44124A0D900022E0FF124A0D900067
:101DD60091E024FEF0021FC2C224E4900258F09063
:101DE600025BE0FF900258E0FEC39F502074D62E9F
:101DF600F582E43400F583E0FD74C82EF582E43400
:101E060001F583EDF0900258E004F080D290009145
:101E1600E024FFFDE434FFFCC3ED9FFFEC9400FEDD
:101E2600EF64054E6003021EBFD20D7F43124A0DBA
:101E36007F61124A0D7F6A124A0D7F65124A0D7F35
:101E460072124A0D7F6F124A0D90025BE0049001F8
:101E5600AAF0E0FF04F074D62FF582E43400F5838F
:101E6600E0900122F09001AAE0FF04F074D62FF56D
:101E760082E43400F583E09000FBF09001AAE0FFD5
:101E860004F074D62FF582E43400F583E0900195D2
:101E9600F09001AAE0FF04F074D62FF582E4340036
:101EA600F583E0900196F09001AAE024D6F582E44D
:101EB6003400F583E090010FF090025BE090009112
:101EC600F0021FC2E4900258F090025BE0FF90021D
:101ED60058E0FEC39F502074D62EF582E43400F5F8
:101EE60083E0FF74C82EF582E43401F583EFF090A9
:101EF6000258E004F080D2D22490025BE0FD24C9AF
:101F0600F582E43401F583E0900022F0D20D9002D0
:101F16005CE0049001AAF0E0FF04F074D62FF5828D
:101F2600E43400F583E0900122F09001AAE0FF047A
:101F3600F074D62FF582E43400F583E09000FBF0D0
:101F46009001AAE0FF04F074D62FF582E43400F580
:101F560083E0900195F09001AAE0FF04F074D62F7B
:101F6600F582E43400F583E0900196F09001AAE052
:101F760024D6F582E43400F583E090010FF090005A
:101F860091EDF08037E4900258F0900091E0FF90D8
:101F96000258E0FEC39F502074D62EF582E434002A
:101FA600F583E0FF74C82EF582E43401F583EFF083
:101FB600900258E004F080D2C224C20D9000F6745C
:101FC6001EF0900023E4F0A3741EF0208D0302217E
:101FD600AEC28D9000FAE0600714F0E07002D210F5
:101FE6009001DDE07002A3E0600E9001DEE024FFC8
:101FF600F09001DDE034FFF09001FFE07002A3E015
:10200600600E900200E024FFF09001FFE034FFF044
:102016009001FDE07002A3E0603F9001FEE024FF26
:10202600F09001FDE034FFF0E07002A3E0702A902A
:10203600005AE090029FF090005BE09002A0F090C2
:10204600005CE09002A1F0900202E04402F09001F0
:10205600E1E4F0A37405F0C20B20B71B9000F9E091
:10206600FF640E6003EF7013300106C294C2018054
:102076000AD294D2018004D294D21F9000F9E014BF
:10208600F0E060030221AE3022139001ABE0600263
:1020960014F09001ABE0700B1244AC80009001ABE1
:1020A6007405F0900023E07002A3E06033900024F2
:1020B600E024FFF0900023E034FFF0E07002A3E09C
:1020C600701E900202E054FEF0E4900126F0C20C6D
:1020D600C2079000FC7420F0C20D3022031249C0E2
:1020E6009001E1E07002A3E060209001E2E024FFAD
:1020F600F09001E1E034FFF0E07002A3E0700B9095
:102106000202E054FDF0C20BC21C9000F6E06073C0
:1021160014F0E0706E741EF07F80124A53E4900251
:1021260058F0900258E0C3941074809480500D7F4C
:1021360020124A0D900258E004F080E6900202E078
:1021460054FEF054FDF054FBF0D222E4900126F048
:10215600C21CC20DC20CC207C21C7FC0124A53E485
:10216600900258F0900258E02447F582E43400F5D6
:1021760083E0FF600B124A0D900258E004F080E401
:102186001244ACC20AC296C295C218C280C219C213
:1021960081C21AC282C21BC2839000F9741CF0E489
:1021A600F58CF58AC28DC21E30103B30B438C21091
:1021B600E490025DF09001DCE0FF90025DE0FEC37A
:1021C6009F502074E92EF582E43401F583E0FD7416
:1021D600D62EF582E43400F583EDF090025DE0043E
:1021E600F080D21244B43016077F06124AB8C216DF
:1021F600900125E0FF64036005EF64077003122277
:102206001E30000E30B40BC20074AB1244AEE412A2
:0822160044AE124964020126E6
:1047B1002575004552524F52204445204C454354E3
:1047C1005552410080402010080402010000000001
:1047D10000004C4543542E31202020202020202051
:0447E1002020200074
:104100004102C9004102C8004102C70041029E00AD
:084110004102A3004102A400DA
:030003000247377A
:10473700C0E0C083C082C0D09002C9E024A5F58242
:10474700E43402F5837430F09002C9E004F0642188
:1047570070129002C804F0A3E024A6F582E43402A4
:0D476700F583E4F0D0D0D082D083D0E032D2
:030013000247742D
:10477400C0E0C083C082C0D09002C9E024A5F58205
:10478400E43402F5837431F09002C9E004F064214A
:1047940070129002C804F0A3E024A6F582E4340267
:0D47A400F583E4F0D0D0D082D083D0E03295
:054AC600D288D2A822F5
:054ACB00D28AD2AA22EC
:034AD000D2AF2240
:0C000600124AC6124ACB124AD00247E54B
:1047E500E4FFEFC3942274809480501774A52FF5CD
:1047F50082E43402F583E4F09002C9F09002C8F037
:104805000F80DFE49002C7F090029EF09002A3F0C3
:02481500A3F00E
:01481700227E
:1048C5007F011243FC9002C7EFF07F091243FC9071
:1048D500029EEFF07F111243FC9002A3EFF07F19C7
:0948E5001243FC9002A4EFF02242
:104988001248C590029EE0A3F09002A3E09002A016
:0C499800F09002A4E09002A1F002455350
:0543FC0090025EEFF0ED
:10440100785F7C027D017BFF7A4779B47E007F1162
:10441100123E6CE4900272F078737C027D017BFFA6
:104421007A4779C5FE7F08123E6C90025EE0FE2459
:1044310008900270F0A3EEF0900270E0FFA3E0FE9E
:10444100C39F506174A52EF582E43402F583E0F92F
:10445100B43129900272E0FF90025EE0FD9002719A
:10446100E0C39DFDE49400FC74732DF58274023C5D
:10447100F583E0FEEF4E900272F08021E9D3943192
:104481005006E9C3943050157F80124A537B017A5C
:1044910002795F124871E4900272F0800890027113
:0A44A100E004F08093900272E0FF47
:0144AB0022EE
:10455300785E7C027D017BFF7A4779CD7E007F0602
:10456300123E6C78647C027D017BFF7A4779D37EAF
:10457300007F12123E6C124AC07F80124A537B01A5
:104583007A0279641248717F87124A5390029FE03E
:10459300FF7E0090027974FFF0A37447F0A374B117
:1045A300F0A3EEF0A3EFF07B017A02795E123A9C5E
:1045B3007B017A02795E1248717F2D124A0D9002B7
:1045C300A0E0FEA3E0FDEDFF90027974FFF0A37479
:1045D30047F0A374B1F0A3EEF0A3EFF07B017A02EE
:0E45E300795E123A9C7B017A02795E02487181
:1049F400C20F759850438780438920758840758D10
:094A0400F4758BF4D28ED2AC22C1
:084AB800200FFD8F99D20F229F
:0300230002359B08
:0B359B00C0E0C083C082C0D075D00823
:1035A600209803023A27AB99C298900125E014604F
:1035B6003C14605824FD700302365714700302361B
:1035C600F624FE700302369524086003023A229020
:1035D60000D4E4F0AF0BEBFD3395E0FCED64054C55
:1035E6006003023A2790012504F0023A279000F47E
:1035F600E0AF0B900125B50B0E7402F09000F67447
:103606001EF0C222023A27E4F0023A27AF0BEB245F
:10361600AD602024F0602924FE600F24EE601224A1
:1036260007702B9001257403805C90012574088037
:1036360055800D9001257405F0D216D223023A2743
:103646009001257405F07F06124AB8023A1B023A29
:1036560022AF0BEBFD3395E0FCED64024C701D9040
:1036660000D4F0E0FE04F074272EF582E43401F570
:1036760083EFF09001257406F0023A27ED64054CBD
:10368600900125700504F0023A1BE4F0023A27AFD8
:103696000B9000D4E0FE04F074272EF582E434018A
:1036A600F583EFF09000D4E0D3943C74809480408E
:1036B60003023A22AF0BEBFD3395E0FCED64034CBD
:1036C600701D900125F0900202E054FEF090012654
:1036D600E4F0C20CC207900023F0A3F0023A27EDF3
:1036E60064054C6003023A2790012504F0023A1B58
:1036F600AF0B9000D4E0FE04F074272EF582E4347C
:1037060001F583EFF09000D4E0D3943C748094806C
:103716004003023A22AF0BEBFD3395E0FCED640368
:103726004C6003023A0930233CC223D2069001DFE3
:10373600F09000D4E0FE9001DFE0FDC39E502074BF
:10374600272DF582E43401F583E0FE74922DF5828F
:10375600E43400F583EEF09001DFE004F080D290CF
:1037660001257407F09000D4E0FD7C006406600338
:10377600023865900128E0FE64446044EE644170BE
:103786003F9001DDE07002A3E0601B9001DDE4F0F4
:10379600A3F0D200900202E054FDF09001FFE4F0A5
:1037A600A37454F0801A9001FFE07002A3E0701039
:1037B600D2969000F9741CF0758C00758A00C28D43
:1037C600900129E0FF64447003023859EF644160B8
:1037D60003023859300360D200302146301174C2DA
:1037E60011900202E054FDF09001DDE07002A3E0CA
:1037F600601DC20B9001DDE4F0A3F0D2009002023E
:10380600E054FDF09001FFE4F0A37454F08044907E
:1038160001FFE07002A3E0703AD2959000F9741CA3
:103826008028301109C211900202E054FDF0D295B1
:103836009000F9742A8013301109C211900202E037
:1038460054FDF0D2959000F9742AF0758C00758AB3
:1038560000C28D900125E4F09000D4F0023A27EDE5
:1038660064074C703D900128E064636003023A27C8
:103876009001DFF09000D4E0FF9001DFE0FEC39FEF
:10388600505D74272EF582E43401F583E0FF74D68B
:103896002EF582E43400F583EFF09001DFE004F0CA
:1038A60080D29000D4E0FF7E006419703B9001DF67
:1038B600F09000D4E0FD9001DFE0FCC39D50207441
:1038C600272CF582E43401F583E0FD74922CF58211
:1038D600E43400F583EDF09001DFE004F080D2904F
:1038E60001257407F0023A27C3EF9426EE6480940C
:1038F600805003023A27900128E06441703E90010F
:10390600DDE07002A3E0601A900202E054FDF09040
:1039160001DDE4F0A3F0D2009001FFF0A37454F0AF
:10392600801A9001FFE07002A3E07010D29690001A
:10393600F9741CF0758C00758A00C28D900129E01F
:10394600644160030239CCD20030035E3021463038
:103956001174C211900202E054FDF09001DDE07096
:1039660002A3E0601DC20B9001DDE4F0A3F0D200DB
:10397600900202E054FDF09001FFE4F0A37454F0CD
:1039860080449001FFE07002A3E0703AD295900067
:10399600F9741C8028301109C211900202E054FD0E
:1039A600F0D2959000F9742A8013301119C2119043
:1039B6000202E054FDF0D2959000F9742AF0758C5D
:1039C60000758A00C28D9001DFE4F09001DFE0C34C
:1039D6009426748094805021E0FF2427F582E434F5
:1039E60001F583E0FE74922FF582E43400F583EE50
:1039F600F09001DFE004F080D29001257407F0D248
:103A060015801EAF0BEF3395E0FEEF64054E701187
:103A160090012504F09000D4E4F08005900125E49F
:083A2600F0309904C299C20FAF
:093A2E00D0D0D082D083D0E03268
:0249A400AE075C
:1049A600E4FDEDC39E501274632DF582E43401F5E7
:0949B60083E0FF124AB80D80E90C
:0149BF0022D5
:0100120022CB
:10481800E4900059F0301805E04401F022301908FE
:10482800900059E04402F022301A08900059E04400
:0E48380004F022301B07900059E04408F022E3
:104A6900E4FDFCC3ED9FEC9E500A1200120DBD003F
:044A7900010C80EFBD
:014A7D002216
:034A7E00124A4B8E
:104A8100E4FFFE1200120FBF00010EEF64024E7030
:014A9100F232
:014A92002201
:104AA600E4FFFE1200120FBF00010EEF64024E700B
:014AB600F20D
:014AB70022DC
:0E4A3D00124818ED54F0FF900059E04FF5803C
:084A4B00D291124A81C29122AE
:104A5300AD07C290124A3DEDC454F0FD54F0FFE09F
:064A63004FF580024A4BF2
:104A26007F01124A53E4FFFE1200120FBF00010E6F
:064A3600EF64FA4E70F27D
:014A3C002257
:1046F000C290124A81C291124A81758039124A7E53
:10470000124A7E124A4B124A81758029124A4B1274
:104710004A817F0C124A53124A261200127F061257
:104720004A531200127F80124A53124A81124818CB
:07473000900059E0F5802222
:104A0D00AD07D290120012124A3DEDC454F0FD5480
:094A1D00F0FFE04FF580024A4B66
:10491600AE07ED14600F14601114601324037016B3
:10492600EE2480800DEE24C08008EE24948003EEF1
:0749360024D4FF124A5322B2
:0B48710090027BEBF0A3EAF0A3E9F05B
:10487C00E4FC90027BE0FBA3E0FAA3E0F98C8275E8
:0E488C008300123E92FF6006124A0D0C80E47B
:01489A0022FB
:0C001600AE07AF05AD0612491602487196
:10489B00C292C293124A819000F47431F0309203A9
:1048AB00E004F03093079000F4E02402F07FC9128B
:0A48BB004A539000F4E0FF024A0D9A
:1049C0007F80124A53E4FCECC394107480948050AE
:0949D000087F20124A0D0C80EE54
:0149D90022BB
:1049DA007FC0124A53E4FCECC39410748094805054
:0949EA00087F20124A0D0C80EE3A
:0149F30022A1
:064AC0001249C00249DAB0
:030000000245F1C5
:0C45F100787FE4F6D8FD7581250246387D
:103D9C00E709F608DFFA8046E709F208DFFA803E09
:103DAC0088828C83E709F0A3DFFA8032E309F608F6
:103DBC00DFFA8078E309F208DFFA807088828C835E
:103DCC00E309F0A3DFFA806489828A83E0A3F60812
:103DDC00DFFA805889828A83E0A3F208DFFA804CEC
:103DEC0080D280FA80C680D4806980F280338010C3
:103DFC0080A680EA809A80A880DA80E280CA80332C
:103E0C0089828A83ECFAE493A3C8C582C8CCC583A3
:103E1C00CCF0A3C8C582C8CCC583CCDFE9DEE78073
:103E2C000D89828A83E493A3F608DFF9ECFAA9F0F2
:103E3C00EDFB2289828A83ECFAE0A3C8C582C8CC48
:103E4C00C583CCF0A3C8C582C8CCC583CCDFEADE61
:103E5C00E880DB89828A83E493A3F208DFF980CCC3
:103E6C0088F0EF60010E4E60C388F0ED2402B404BC
:103E7C000050B9F582EB2402B4040050AF23234563
:063E8C008223903DEC735F
:103E9200BB010CE58229F582E5833AF583E02250E5
:103EA20006E92582F8E622BBFE06E92582F8E2222F
:0D3EB200E58229F582E5833AF583E4932249
:0C3EBF00ECF0A3EDF0A3EEF0A3EFF02276
:103ECB00A8828583F0D083D082123EE2123EE212AA
:103EDB003EE2123EE2E473E493A3C583C5F0C583CF
:103EEB00C8C582C8F0A3C583C5F0C583C8C582C841
:013EFB0022A4
:103A3700E5102479F582E43402F583E0051022903D
:103A47000276302D03900279E475F001123F2702C8
:103A57003EFC2026E97F2ED2268018EF540F2490B3
:103A6700D43440D4FF302A0BEF24BFB41A005003DC
:103A77002461FFE511600215110514E514700205B4
:103A870013302D0E900276E475F001123F27EF02F6
:103A97003F1502493D7403D22D8003E4C22DF51072
:103AA700900276123F3EE4F511F513F514E5116027
:103AB700077F20123A7A80F57512FFC227C226C205
:103AC70028C229C22BC22CC22E123A46FF700D30D3
:103AD7002D057F00123A8BAF14AE1322B4255FC2B7
:103AE700D5C22A123A46FF24D0B40A00501A75F0FC
:103AF7000A781130D50508B6FF0106C6A426F620B8
:103B0700D5047002D22980D924CFB41A00EF50040B
:103B1700C2E5D22A023C8CD22780C6D22680C0D2E8
:103B27002880BCD2D580BAD22B80B47F20123A7AB3
:103B37002028077401B5110040F1123A37FF123AF5
:103B47007A023AB4D22ED22C8095123A37FB123A27
:103B570037FA123A37F94A4B7006795D7A3D7BFF9F
:103B670020282EE511602A7E008E82758300123E82
:103B77009260060EEE651270F0C2D5EBC0E0EAC0A7
:103B8700E0E9C0E0EE123CD3D0E0F9D0E0FAD0E0B3
:103B9700FB123EFCFF60AAEBC0E0EAC0E0E9C0E030
:103BA700123A7AD0E02401F9D0E03400FAD0E0FBF1
:103BB700E5120460DCD512D980877BFF7A3C79CF88
:103BC700D228809C791080027908C22CC22E8008E6
:103BD700D2D5790A8004790AC2D5E512047002F5B4
:103BE70012E4FAFDFEFF123A37FC7B082027131276
:103BF7003A37FD7B1030260A123A37FE123A37FF62
:103C07007B20EC3382D592D55013C3E43026069F30
:103C1700FFE49EFEE42027039DFDE49CFCE4CBF833
:103C2700C227EC700CCFCECDCCE824F8F870F38027
:103C370017C3EF33FFEE33FEED33FDEC33FCEB330D
:103C4700FB994002FB0FD8E9EB302705F8D0E0C419
:103C570048B227C0E00AEC4D4E4F78207B0070C277
:103C6700EAB5120040BCC0E0123CD5D0F0D0E0204D
:103C77002704C4C0E0C4B227C0F0123A63D0F0D51D
:103C8700F0EB023AB4123F473B51533BCB583B2230
:103C97004C3B1E423BCF4F3BD7443BD7493B374377
:083CA7003BDD553BC1463BC16A
:103CAF00453BC1473D7D503B262D3B2A2E3B4D2B9F
:103CBF003B2E233B4B203D662A3AE64800003B450E
:103CCF003F3F3F00790AA2D5202914302B09B910A4
:103CDF00020404B9080104A2D5202C0250010420CB
:103CEF0028689228B511005034C0E07F2030291980
:103CFF007F30A228722C722B500F123D2CC228C27B
:103D0F002CC22BC22E7F30800F302B03E9C0E01264
:103D1F003A7A302B03D0E0F9D0E0B511CC302B1725
:103D2F007F30B9100C123A7A7F58302A077F78808B
:103D3F0003B90803123A7A3028057F2D023A7A7FA9
:103D4F0020202EF87F2B202CF322922880CF286E54
:103D5F00756C6C2900D227123A373027F8C22778B2
:103D6F001130D50108F6023AE62D50434958123A60
:103D7F00372403B405004001E4903D7893123A6B69
:0D3D8F00743A123A6BD229751104023BCB35
:1045FD00020026E493A3F8E493A34003F68001F2AE
:10460D0008DFF48029E493A3F85407240CC8C333BE
:10461D00C4540F4420C8834004F456800146F6DF8D
:10462D00E4800B0102040810204080903F6DE47E71
:10463D00019360BCA3FF543F30E509541FFEE49382
:10464D00A360010ECF54C025E060A840B8E493A349
:10465D00FAE493A3F8E493A3C8C582C8CAC583CA74
:10466D00F0A3C8C582C8CAC583CADFE9DEE780BE2C
:0141180000A6
:103EFC00BB010689828A83E0225002E722BBFE02C4
:093F0C00E32289828A83E49322F6
:103F1500BB010689828A83F0225002F722BBFE018B
:023F2500F32285
:103F2700F8E0FBA3A3E0F925F0F0E5821582700223
:073F37001583E0FA38F022C7
:093F3E00EBF0A3EAF0A3E9F02284
:103F4700D083D082F8E4937012740193700DA3A309
:103F570093F8740193F5828883E47374029368601D
:063F6700EFA3A3A380DF1D
:10493D00EFB40A07740D124948740A309811A899FA
:10494D00B8130CC2983098FDA899C298B811F630DA
:07495D0099FDC299F59922B2
:00000001FF
